:020000040000FA
:0400000007EF00F016
:100008001E82CBED01F066EF05F0F29EE8C256F1D4
:10001800E9C257F1000E0101596F2E0E586FDDEC41
:1000280005F0270E01015625D96E020E5721DA6E0A
:10003800DE50DE10D8B423EF00F025EF00F0BEEF5D
:1000480000F0000E0001816F000E806FE8C256F1CB
:10005800E9C257F1000E0101596F2E0E586FDDEC01
:1000680005F0020E01015625D96E020E5721DA6EEF
:10007800030EDF6EE8C256F1E9C257F1000E596F60
:100088002E0E586FDDEC05F02A0E01015625D96EAB
:10009800020E5721DA6EE8CFDFFFE8C256F1E9C257
:1000A80057F1000E596F2E0E586FDDEC05F0290E32
:1000B80001015625D96E020E5721DA6EE0CFDFFF17
:1000C800E8C256F1E9C257F1000E596F2E0E586F6B
:1000D800DDEC05F02B0E01015625D96E020E5721D5
:1000E800DA6ED8CFDFFFE8C256F1E9C257F1000E49
:1000F800596F2E0E586FDDEC05F0270E01015625BD
:10010800D96E020E5721DA6E000EDE6E000EDD6E1D
:10011800E8C256F1E9C257F1000E0101596F2E0EDF
:10012800586FDDEC05F0000E0101646F020E656F7B
:10013800070E6427000E652356516427575165231F
:100148000001805101016425D96E0001815101012E
:100158006521DA6EFDCFDFFF0001804B812B0600A1
:10016800FC50D8A4BAEF00F0BCEF00F08CEF00F020
:10017800D1EF00F0E8C256F1E9C257F1000E596F0D
:100188002E0E586FDDEC05F0020E01015625D96ED2
:10019800020E5721DA6E030EDF6EE8C256F1E9C28D
:1001A80057F1000E0101596F2E0E586FDDEC05F066
:1001B8002C0E01015625D96E020E5721DA6E62C146
:1001C800DEFF63C1DDFF0DEC06F060C1E8F261C13E
:1001D800E9F2E8C256F1E9C257F1000E0101596F80
:1001E8002E0E586FDDEC05F0270E01015625D96E4D
:1001F800020E5721DA6EDE50DE10D8A406EF01F0A9
:1002080008EF01F024EF01F0E8C256F1E9C257F116
:10021800000E596F2E0E586FDDEC05F0050E01012A
:100228005625D96E020E5721DA6EDECF64F1DDCF86
:1002380065F164C1FDFF65C1FEFFFF6AC9EF01F00A
:10024800E8C256F1E9C257F1000E596F2E0E586FE9
:10025800DDEC05F0020E01015625D96E020E57217C
:10026800DA6E010EDF6EE8C256F1E9C257F1000EF0
:10027800596F2E0E586FDDEC05F02A0E0101562538
:10028800D96E020E5721DA6EDF50646F6451E8C2EE
:1002980056F1E9C257F1000E596F2E0E586FDDEC7A
:1002A80005F0290E01015625D96E020E5721DA6E86
:1002B800DF50E06EE8C256F1E9C257F1000E596FFF
:1002C8002E0E586FDDEC05F02B0E01015625D96E68
:1002D800020E5721DA6EDF50D86EE8C256F1E9C235
:1002E80057F1000E596F2E0E586FDDEC05F0270EF2
:1002F80001015625D96E020E5721DA6EDECF64F160
:10030800DDCF65F1FF0E64250001806FFF0E01014E
:1003180065210001816F000EFC6EC0EF01F0050041
:10032800E8C256F1E9C257F1000E0101596F2E0ECD
:10033800586FDDEC05F0000E0101646F020E656F69
:10034800070E6427000E652356516427575165230D
:100358000001805101016425D96E0001815101011C
:100368006521DA6EDF50666F6651FD6EFE6AFF6AC0
:1003780000018007D8A0810780518111D8A4C7EF58
:1003880001F0C9EF01F093EF01F0F28E12000600C0
:10039800D9CF12F0DACF13F0F3CF14F0F4CF15F071
:1003A800F29EF2A4DAEF01F0DCEF01F07CEF03F04B
:1003B800F294000ED66E1C06D8A01D061C501D1007
:1003C800D8A4E9EF01F0EBEF01F07AEF03F0E8C20F
:1003D80001F0E9C202F0000E046E2E0E036EF1EC7D
:1003E80005F0270E0124D96E020E0220DA6EDE50C7
:1003F800DE10D8B402EF02F004EF02F091EF02F041
:10040800000E0001816F000E806FE8C201F0E9C2A2
:1004180002F0000E046E2E0E036EF1EC05F0020ED3
:100428000124D96E020E0220DA6E000EDF6EE8C2D9
:1004380001F0E9C202F0000E046E2E0E036EF1EC1C
:1004480005F02A0E0124D96E020E0220DA6EE8CFDA
:10045800DFFFE8C201F0E9C202F0000E046E2E0EC2
:10046800036EF1EC05F0290E0124D96E020E02206C
:10047800DA6EE0CFDFFFE8C201F0E9C202F0000E59
:10048800046E2E0E036EF1EC05F02B0E0124D96ECE
:10049800020E0220DA6ED8CFDFFFE8C201F0E9C20F
:1004A80002F0000E046E2E0E036EF1EC05F0270E1E
:1004B8000124D96E020E0220DA6E000EDE6E000EE6
:1004C800DD6EE8C201F0E9C202F0000E046E2E0EE5
:1004D800036EF1EC05F0000E0F6E020E106E070EA3
:1004E8000F26000E102201500F2602501022000184
:1004F80080510F24D96E81511020DA6EFDCFDFFFB5
:10050800804B812B0600FC50D8A48DEF02F08FEFB2
:1005180002F065EF02F0A3EF02F0E8C201F0E9C2D1
:1005280002F0000E046E2E0E036EF1EC05F0020EC2
:100538000124D96E020E0220DA6E000EDF6E14EC72
:1005480006F00BC0E8F20CC0E9F2E8C201F0E9C21B
:1005580002F0000E046E2E0E036EF1EC05F0270E6D
:100568000124D96E020E0220DA6EDE50DE10D8A405
:10057800C0EF02F0C2EF02F0DDEF02F0E8C201F0D6
:10058800E9C202F0000E046E2E0E036EF1EC05F0C7
:10059800050E0124D96E020E0220DA6EDECF0FF0AE
:1005A800DDCF10F00FC0FDFF10C0FEFFFF6A75EF32
:1005B80003F0E8C201F0E9C202F0000E046E2E0E4C
:1005C800036EF1EC05F0020E0124D96E020E022032
:1005D800DA6E010EDF6EE8C201F0E9C202F0000E29
:1005E800046E2E0E036EF1EC05F02A0E0124D96E6E
:1005F800020E0220DA6EDF500F6E0F50E8C201F0D3
:10060800E9C202F0000E046E2E0E036EF1EC05F046
:10061800290E0124D96E020E0220DA6EDF50E06E38
:10062800E8C201F0E9C202F0000E046E2E0E036E5D
:10063800F1EC05F02B0E0124D96E020E0220DA6EC1
:10064800DF50D86EE8C201F0E9C202F0000E046E75
:100658002E0E036EF1EC05F0270E0124D96E020E62
:100668000220DA6EDECF0FF0DDCF10F0FF0E0F2480
:100678000001806FFF0E1020816F000EFC6E6CEF82
:1006880003F00500E8C201F0E9C202F0000E046EB2
:100698002E0E036EF1EC05F0000E0F6E020E106EBA
:1006A800070E0F26000E102201500F2602501022AE
:1006B800000180510F24D96E81511020DA6EDF506D
:1006C800116E1150FD6EFE6AFF6A8007D8A081077F
:1006D80080518111D8A473EF03F075EF03F045EF53
:1006E80003F0F28E000E1D6E0C0E1C6E86EC03F0ED
:1006F80015C0F4FF14C0F3FF13C0DAFF12C0D9FF0E
:100708001E921100000E0C6E000E0B6E000E0E6E87
:10071800000E0D6EEDEF03F00DC001F00EC002F0FB
:10072800000E046E2E0E036EF1EC05F0020E01248D
:10073800D96E020E0220DA6E030EDE18D8A4A7EFD7
:1007480003F0A9EF03F0EBEF03F00DC001F00EC0CA
:1007580002F0000E046E2E0E036EF1EC05F02C0E66
:100768000124D96E020E0220DA6EDE06000EDD5A72
:100778000DC001F00EC002F0000E046E2E0E036EC6
:10078800F1EC05F02C0E0124D96E020E0220DA6E6F
:10079800DE50DE10D8A4D3EF03F0D5EF03F0EBEF73
:1007A80003F00DC001F00EC002F0000E046E2E0E14
:1007B800036EF1EC05F0020E0124D96E020E022040
:1007C800DA6E000EDF6E000E0C6E010E0B6E0D4A17
:1007D8000E2A0201E6510D5CE7510E58D8A0F7EF3A
:1007E80003F0F9EF03F090EF03F00BC007F00CC033
:1007F80008F01200E8C25EF1E9C25FF1010E0101E2
:100808005E25566F000E5F21576F010E0201E62527
:100818000101586F000E0201E7210101596FA1EC97
:1008280004F056C15EF157C15FF15EC156F15FC178
:1008380057F1000E0101596F2E0E586FDDEC05F0CF
:10084800020E01015625D96E020E5721DA6EDF50CD
:10085800D8A431EF04F033EF04F002EF04F05EC1E6
:100868005CF15FC15DF11200010E0201E625030192
:10087800006F000E0201E7210301016F6EC103F34F
:100888006FC104F3000E026F70C105F371C106F366
:10089800000E286F000E276F23EE00F0E6C268F105
:1008A800E7C269F1000E01016B6F2E0E6A6FC9EC89
:1008B80005F02E0E01016825E16E020E6921E26E37
:1008C8002D0EDBCFE3FFE806FCE20201E64BE72B47
:1008D8001200E8C209F0E9C20AF0010E0924016E0B
:1008E800000E0A20026E010E0201E625036E000EBC
:1008F800E721046ED4EC04F001C009F002C00AF04C
:1009080009C001F00AC002F0000E046E2E0E036E3C
:10091800F1EC05F0020E0124D96E020E0220DA6E07
:10092800DF50D8A49AEF04F09CEF04F071EF04F0C4
:1009380009C007F00AC008F0120001015851591106
:10094800D8B4A9EF04F0ABEF04F0CFEF04F0010E38
:100958005A6FB3EF04F0D890583759375A2B59AF1C
:10096800B8EF04F0BAEF04F0AFEF04F05851565D59
:1009780059515759D8A0C3EF04F0C5EF04F0C9EF97
:1009880004F05851565F5951575BD8905933583332
:100998005A2FBAEF04F056C156F157C157F1120059
:1009A80003500410D8B4DBEF04F0DDEF04F001EFDE
:1009B80005F0010E056EE5EF04F0D8900336043615
:1009C800052A04AEEAEF04F0ECEF04F0E1EF04F0DE
:1009D8000350015C04500258D8A0F5EF04F0F7EF7B
:1009E80004F0FBEF04F00350015E0450025AD89063
:1009F80004320332052EECEF04F001C001F002C00E
:100A080002F012009AEC05F0000E01016F6F020E61
:100A18006E6F000E706F0B0E716F38EC04F0000EE5
:100A280001016F6F020E6E6F960E706F0A0E716F76
:100A380038EC04F0000E01016F6F030E6E6F5E0E4E
:100A4800706F0A0E716F38EC04F020EC06F02BEF93
:100A580005F007EF00F083B434EF05F037EF05F049
:100A6800010E38EF05F0000EFF0A0101676F6747B6
:100A7800674783506719FB0B6719836E000E636F16
:100A8800640E626F09EC00F02FEF05F0120083B2DC
:100A980050EF05F053EF05F0010E54EF05F0000E8E
:100AA800FF0A1B6E1B4683501B18FD0B1B18836E19
:100AB800010E0101636F2C0E626F09EC00F04BEF21
:100AC80005F01200460EF66E0C0EF76E000EF86E6C
:100AD8000900F5CF1CF00900F5CF1DF002EE00F07B
:100AE800EA0EEE6AE806FDE10001816B806B1E905C
:100AF8001E92000106EF05F083B085EF05F088EF40
:100B080005F0010E89EF05F0000EFF0A1A6E8350FA
:100B18001A18FE0B1A18836E010E0101636FF40E8A
:100B2800626F09EC00F080EF05F01200000E020180
:100B3800E96F000EE86F000EE76F000EE66F04EC39
:100B480006F0000E01016F6F000E6E6F660E706F7B
:100B58000B0E716F38EC04F01BEC06F0120083B634
:100B6800B8EF05F0BBEF05F0010EBCEF05F0000E85
:100B7800FF0A196E19461946194683501918F70BBA
:100B88001918836EB3EF05F01200010168516A036A
:100B9800F3CF6CF1F4CF6DF168516B03F3506D270F
:100BA80069516A03F3506D276CC168F16DC169F131
:100BB8001200010156515803F3CF5AF1F4CF5BF1FB
:100BC80056515903F3505B2757515803F3505B278D
:100BD8005AC156F15BC157F1120001500302F3CF1D
:100BE80005F0F4CF06F001500402F3500626025037
:100BF8000302F350062605C001F006C002F01200F9
:100C0800F28AF28CD59AD596070ED512000ED66EBA
:100C18001200FEEC03F05CC160F15DC161F11200ED
:100C28006DEC04F007C00BF008C00CF012009590B2
:100C38009592959495961200F28ED58E12000C001E
:020000040020DA
:08000000FFFFFFFFFFFFFFFF00
:020000040030CA
:0E000000FF071F1EFF8385FF0FC00FE00F409C
:00000001FF
