:020000040000FA
:0400000007EF00F016
:100008004182E9ED04F07AEF0AF0F29E9EC0D9FF32
:100018009FC0DAFF010EDBBE1DEF00F0010EDB50C2
:1000280006E1DE04D8B01BEF00F01DEF00F091EF01
:1000380002F099EC0BF0000120EE06F09E51D92653
:100048009F51DA22DECF30F0DDCF31F0D890303654
:1000580031369EC032F09FC033F0305032263150D6
:100068003322020E3224D96E000E3320DA6E96C087
:10007800DEFF97C0DDFF20EE06F09E51D9269F5186
:10008800DA22DECF30F0DDCF31F0010E3026000E5F
:100098003122010E3016000E311620EE06F09E5168
:1000A800D9269F51DA2230C0DEFF31C0DDFF000EB5
:1000B800BE6F000EBD6FFBC2A0F0FCC2A1F0000E27
:1000C800A36F650EA26F3FEC0BF0670E0001A02531
:1000D800D96E010EA121DA6E030EDF6EFBC2A0F00D
:1000E800FCC2A1F0000EA36F650EA26F3FEC0BF0EF
:1000F800C60E0001A025D96E010EA121DA6EE8CF47
:10010800DFFFFBC2A0F0FCC2A1F0000EA36F650EDA
:10011800A26F3FEC0BF0C50E0001A025D96E010EB1
:10012800A121DA6EE0CFDFFFFBC2A0F0FCC2A1F094
:10013800000EA36F650EA26F3FEC0BF0C70E000117
:10014800A025D96E010EA121DA6ED8CFDFFF2FEFDF
:1001580001F0FBC2A0F0FCC2A1F0000E0001A36FE9
:10016800650EA26F3FEC0BF0650E306E010E316E1E
:10017800070E3026000E31220001A0513026A15171
:100188003122BDC0A0F0BEC0A1F0000EA36F030EC7
:10019800A26F3FEC0BF00001A0513024D96EA151A1
:1001A8003120DA6EFFCFDFFFFBC2A0F0FCC2A1F066
:1001B800000EA36F650EA26F3FEC0BF0650E306E5C
:1001C800010E316E080E3026000E31220001A051BA
:1001D8003026A1513122BDC0A0F0BEC0A1F0000E52
:1001E800A36F030EA26F3FEC0BF00001A051302467
:1001F800D96EA1513120DA6EFDCFDFFFFBC2A0F02E
:10020800FCC2A1F0000EA36F650EA26F3FEC0BF0CD
:10021800650E306E010E316E090E3026000E312249
:100228000001A0513026A1513122BDC0A0F0BEC0AE
:10023800A1F0000EA36F030EA26F3FEC0BF00001BC
:10024800A0513024D96EA1513120DA6EFECFDFFFE4
:10025800BD4BBE2B0600FC50D8A435EF01F037EF9C
:1002680001F0ADEF00F0FBC2A0F0FCC2A1F0000E5F
:100278000001A36F650EA26F3FEC0BF0C30E0001E7
:10028800A025D96E010EA121DA6EBDC0DEFFBEC069
:10029800DDFF85EC0BF00001A6C0FBF2A7C0FCF265
:1002A800000EFC6EFBC2A0F0FCC2A1F0000EA36F12
:1002B800650EA26F3FEC0BF0C30E0001A025D96EAE
:1002C800010EA121DA6EDE50DE10D8A46EEF01F027
:1002D80070EF01F0A1EF01F00500FBC2A0F0FCC235
:1002E800A1F0000E0001A36F650EA26F3FEC0BF0AA
:1002F8006A0E0001A025D96E010EA121DA6EDECFAB
:1003080030F0DDCF31F030C0FDFF31C0FEFFFF6AB5
:10031800FBC2A0F0FCC2A1F0000EA36F650EA26F95
:100328003FEC0BF0670E0001A025D96E010EA1214C
:10033800DA6E010EDF6E91EF02F0FBC2A0F0FCC294
:10034800A1F0000EA36F650EA26F3FEC0BF0670ED5
:100358000001A025D96E010EA121DA6E010EDF6E13
:10036800FBC2A0F0FCC2A1F0000EA36F650EA26F45
:100378003FEC0BF0C60E0001A025D96E010EA1219D
:10038800DA6EDF50306E3050FBC2A0F0FCC2A1F034
:10039800000EA36F650EA26F3FEC0BF0C50E0001B7
:1003A800A025D96E010EA121DA6EDF50E06EFBC2E6
:1003B800A0F0FCC2A1F0000EA36F650EA26F3FEC87
:1003C8000BF0C70E0001A025D96E010EA121DA6E2F
:1003D800DF50D86EFBC2A0F0FCC2A1F0000EA36FE4
:1003E800650EA26F3FEC0BF0C30E0001A025D96E7D
:1003F800010EA121DA6EDECFBDF0DDCFBEF088EFB1
:1004080002F00500FBC2A0F0FCC2A1F0000E000142
:10041800A36F650EA26F3FEC0BF0650E306E010EF8
:10042800316E040E3026000E31220001A051302614
:10043800A1513122BDC0A0F0BEC0A1F0000EA36F33
:10044800030EA26F3FEC0BF00001A0513024D96ECF
:10045800A1513120DA6EDF50FF6EFBC2A0F0FCC262
:10046800A1F0000EA36F650EA26F3FEC0BF0650EB6
:10047800306E010E316E050E3026000E312200015D
:10048800A0513026A1513122BDC0A0F0BEC0A1F0BC
:10049800000EA36F030EA26F3FEC0BF00001A051FA
:1004A8003024D96EA1513120DA6EDF50FD6EFBC2C7
:1004B800A0F0FCC2A1F0000EA36F650EA26F3FEC86
:1004C8000BF0650E306E010E316E060E3026000EF2
:1004D80031220001A0513026A1513122BDC0A0F027
:1004E800BEC0A1F0000EA36F030EA26F3FEC0BF08D
:1004F8000001A0513024D96EA1513120DA6EDF50AD
:10050800FE6EBD07D8A0BE07BD51BE11D8A48FEF9F
:1005180002F091EF02F005EF02F09EC0D9FF9FC0F4
:10052800DAFFDE06000EDD5AF28E1200F29E000E91
:100538000001BE6F000EBD6FFBC2A0F0FCC2A1F0AF
:10054800000EA36F650EA26F3FEC0BF0670E000163
:10055800A025D96E010EA121DA6E030EDF6EFBC253
:10056800A0F0FCC2A1F0000EA36F650EA26F3FECD5
:100578000BF0C60E0001A025D96E010EA121DA6E7E
:10058800E8CFDFFFFBC2A0F0FCC2A1F0000EA36F12
:10059800650EA26F3FEC0BF0C50E0001A025D96EC9
:1005A800010EA121DA6EE0CFDFFFFBC2A0F0FCC292
:1005B800A1F0000EA36F650EA26F3FEC0BF0C70E03
:1005C8000001A025D96E010EA121DA6ED8CFDFFF78
:1005D80070EF03F0FBC2A0F0FCC2A1F0000E000116
:1005E800A36F650EA26F3FEC0BF0650E3C6E010E1B
:1005F8003D6E070E3C26000E3D220001A0513C2610
:10060800A1513D22BDC0A0F0BEC0A1F0000EA36F55
:10061800030EA26F3FEC0BF00001A0513C24D96EF1
:10062800A1513D20DA6EFFCFDFFFFBC2A0F0FCC274
:10063800A1F0000EA36F650EA26F3FEC0BF0650EE4
:100648003C6E010E3D6E080E3C26000E3D22000158
:10065800A0513C26A1513D22BDC0A0F0BEC0A1F0D2
:10066800000EA36F030EA26F3FEC0BF00001A05128
:100678003C24D96EA1513D20DA6EFDCFDFFFFBC2CD
:10068800A0F0FCC2A1F0000EA36F650EA26F3FECB4
:100698000BF0650E3C6E010E3D6E090E3C26000EF9
:1006A8003D220001A0513C26A1513D22BDC0A0F031
:1006B800BEC0A1F0000EA36F030EA26F3FEC0BF0BB
:1006C8000001A0513C24D96EA1513D20DA6EFECF25
:1006D800DFFFBD4BBE2B0600FC50D8A476EF03F01D
:1006E80078EF03F0EEEF02F0FBC2A0F0FCC2A1F03D
:1006F800000E0001A36F650EA26F3FEC0BF0C30E56
:100708000001A025D96E010EA121DA6EBDC0DEFF61
:10071800BEC0DDFFFBC2A0F0FCC2A1F0000EA36FBB
:10072800650EA26F3FEC0BF0C80E0001A025D96E34
:10073800010EA121DA6EA8C0DEFFA9C0DDFF85EC9D
:100748000BF00001A6C0FBF2A7C0FCF2000EFC6E85
:10075800FBC2A0F0FCC2A1F0000EA36F650EA26F51
:100768003FEC0BF0C30E0001A025D96E010EA121AC
:10077800DA6EDE50DE10D8A4C4EF03F0C6EF03F043
:10078800F7EF03F00500FBC2A0F0FCC2A1F0000ED9
:100798000001A36F650EA26F3FEC0BF06A0E00011B
:1007A800A025D96E010EA121DA6EDECF3CF0DDCF97
:1007B8003DF03CC0FDFF3DC0FEFFFF6AFBC2A0F05C
:1007C800FCC2A1F0000EA36F650EA26F3FEC0BF008
:1007D800670E0001A025D96E010EA121DA6E010E67
:1007E800DF6EE7EF04F0FBC2A0F0FCC2A1F0000E40
:1007F800A36F650EA26F3FEC0BF0670E0001A025FA
:10080800D96E010EA121DA6E010EDF6EFBC2A0F0D7
:10081800FCC2A1F0000EA36F650EA26F3FEC0BF0B7
:10082800C60E0001A025D96E010EA121DA6EDF5097
:100838003C6E3C50FBC2A0F0FCC2A1F0000EA36FBE
:10084800650EA26F3FEC0BF0C50E0001A025D96E16
:10085800010EA121DA6EDF50E06EFBC2A0F0FCC2EF
:10086800A1F0000EA36F650EA26F3FEC0BF0C70E50
:100878000001A025D96E010EA121DA6EDF50D86ED5
:10088800FBC2A0F0FCC2A1F0000EA36F650EA26F20
:100898003FEC0BF0C30E0001A025D96E010EA1217B
:1008A800DA6EDECFBDF0DDCFBEF0DEEF04F005007E
:1008B800FBC2A0F0FCC2A1F0000E0001A36F650E00
:1008C800A26F3FEC0BF0650E3C6E010E3D6E040E00
:1008D8003C26000E3D220001A0513C26A1513D229C
:1008E800BDC0A0F0BEC0A1F0000EA36F030EA26FA2
:1008F8003FEC0BF00001A0513C24D96EA1513D20E2
:10090800DA6EDF50FF6EFBC2A0F0FCC2A1F0000E51
:10091800A36F650EA26F3FEC0BF0650E3C6E010EE7
:100928003D6E050E3C26000E3D220001A0513C26DE
:10093800A1513D22BDC0A0F0BEC0A1F0000EA36F22
:10094800030EA26F3FEC0BF00001A0513C24D96EBE
:10095800A1513D20DA6EDF50FD6EFBC2A0F0FCC253
:10096800A1F0000EA36F650EA26F3FEC0BF0650EB1
:100978003C6E010E3D6E060E3C26000E3D22000127
:10098800A0513C26A1513D22BDC0A0F0BEC0A1F09F
:10099800000EA36F030EA26F3FEC0BF00001A051F5
:1009A8003C24D96EA1513D20DA6EDF50FE6EBD07A2
:1009B800D8A0BE07BD51BE11D8A4E5EF04F0E7EFFB
:1009C80004F05BEF04F0F28E12000600D9CF11F0AC
:1009D800DACF12F0F3CF13F0F4CF14F0F29EF2A4B2
:1009E800F8EF04F0FAEF04F02BEF07F03F06D8A079
:1009F80040063F504010D8A404EF05F006EF05F07C
:100A080026EF07F0000E0001BE6F000EBD6FFBC29F
:100A180001F0FCC202F0000E046E650E036E67EC76
:100A28000BF0670E0124D96E010E0220DA6E030E58
:100A3800DF6EFBC201F0FCC202F0000E046E650E10
:100A4800036E67EC0BF0C60E0124D96E010E02206E
:100A5800DA6EE8CFDFFFFBC201F0FCC202F0000E45
:100A6800046E650E036E67EC0BF0C50E0124D96E9B
:100A7800010E0220DA6EE0CFDFFFFBC201F0FCC2FC
:100A880002F0000E046E650E036E67EC0BF0C70EE5
:100A98000124D96E010E0220DA6ED8CFDFFFD1EF24
:100AA80005F0FBC201F0FCC202F0000E046E650EF8
:100AB800036E67EC0BF0650E0F6E010E106E070EDD
:100AC8000F26000E102201500F2602501022BDC022
:100AD80001F0BEC002F0000E046E030E036E67EC58
:100AE8000BF001500F24D96E02501020DA6EFFCFA0
:100AF800DFFFFBC201F0FCC202F0000E046E650EBF
:100B0800036E67EC0BF0650E0F6E010E106E080E8B
:100B18000F26000E102201500F2602501022BDC0D1
:100B280001F0BEC002F0000E046E030E036E67EC07
:100B38000BF001500F24D96E02501020DA6EFDCF51
:100B4800DFFFFBC201F0FCC202F0000E046E650E6E
:100B5800036E67EC0BF0650E0F6E010E106E090E3A
:100B68000F26000E102201500F2602501022BDC081
:100B780001F0BEC002F0000E046E030E036E67ECB7
:100B88000BF001500F24D96E02501020DA6EFECF00
:100B9800DFFF0001BD4BBE2B0600FC50D8A4D7EFE9
:100BA80005F0D9EF05F055EF05F0FBC201F0FCC2E6
:100BB80002F0000E046E650E036E67EC0BF0C30EB8
:100BC8000124D96E010E0220DA6EBDC0DEFFBEC060
:100BD800DDFF8CEC0BF00DC0FBF20EC0FCF2000E3A
:100BE800FC6EFBC201F0FCC202F0000E046E650E42
:100BF800036E67EC0BF0C30E0124D96E010E0220C0
:100C0800DA6EDE50DE10D8A40CEF06F00EEF06F018
:100C18003CEF06F00500FBC201F0FCC202F0000E3A
:100C2800046E650E036E67EC0BF06A0E0124D96E34
:100C3800010E0220DA6EDECF0FF0DDCF10F00FC00C
:100C4800FDFF10C0FEFFFF6AFBC201F0FCC202F00C
:100C5800000E046E650E036E67EC0BF0670E012440
:100C6800D96E010E0220DA6E010EDF6E22EF07F058
:100C7800FBC201F0FCC202F0000E046E650E036EAA
:100C880067EC0BF0670E0124D96E010E0220DA6EB4
:100C9800010EDF6EFBC201F0FCC202F0000E046E12
:100CA800650E036E67EC0BF0C60E0124D96E010EBB
:100CB8000220DA6EDF500F6E0F50FBC201F0FCC24B
:100CC80002F0000E046E650E036E67EC0BF0C50EA5
:100CD8000124D96E010E0220DA6EDF50E06EFBC2ED
:100CE80001F0FCC202F0000E046E650E036E67ECA4
:100CF8000BF0C70E0124D96E010E0220DA6EDF5008
:100D0800D86EFBC201F0FCC202F0000E046E650E44
:100D1800036E67EC0BF0C30E0124D96E010E02209E
:100D2800DA6EDECFBDF0DDCFBEF018EF07F00500BC
:100D3800FBC201F0FCC202F0000E046E650E036EE9
:100D480067EC0BF0650E0F6E010E106E040E0F2689
:100D5800000E102201500F2602501022BDC001F0D3
:100D6800BEC002F0000E046E030E036E67EC0BF0BB
:100D780001500F24D96E02501020DA6EDF50FF6E3A
:100D8800FBC201F0FCC202F0000E046E650E036E99
:100D980067EC0BF0650E0F6E010E106E050E0F2638
:100DA800000E102201500F2602501022BDC001F083
:100DB800BEC002F0000E046E030E036E67EC0BF06B
:100DC80001500F24D96E02501020DA6EDF50FD6EEC
:100DD800FBC201F0FCC202F0000E046E650E036E49
:100DE80067EC0BF0650E0F6E010E106E060E0F26E7
:100DF800000E102201500F2602501022BDC001F033
:100E0800BEC002F0000E046E030E036E67EC0BF01A
:100E180001500F24D96E02501020DA6EDF50FE6E9A
:100E28000001BD07D8A0BE070001BD51BE11D8A45E
:100E380020EF07F022EF07F09BEF06F0000E406E60
:100E4800050E3F6E36EC08F0F294060ED66EF28E62
:100E580014C0F4FF13C0F3FF12C0DAFF11C0D9FFAA
:100E6800419211000001BA6F7E0E0001BA653FEF92
:100E780007F041EF07F047EF07F0000EB26F000EE2
:100E8800B36FC8EF07F0FD0EBB6F020EBC6FBBC09F
:100E9800D9FFBCC0DAFFDF500001B96FB9517F0B31
:100EA800B46FB405B86FB951D8A45DEF07F05FEF20
:100EB80007F061EF07F041EF07F0B9BF66EF07F001
:100EC80068EF07F07FEF07F0BA51B85DD8B06FEF61
:100ED80007F071EF07F08BEF07F0BBC0AAF0BCC0BA
:100EE800ABF0C9EC07F00009D8A47DEF07F07FEF5D
:100EF80007F0C6EF07F00001B9517F0BB46FB4518A
:100F0800010DF350BB27F450BC234BEF07F0B85149
:100F1800BA19D8A492EF07F094EF07F0A1EF07F001
:100F2800BBC0D9FFBCC0DAFFDF8E010EBB25B26F94
:100F3800000EBC21B36FC8EF07F0BA51810FBBC0D8
:100F4800D9FFBCC0DAFFDF6E010EBB25B66F000EFD
:100F5800BC21B76FBA51B46FB56B010EB427000E40
:100F6800B523B451BB27B551BC23BA51B85DBBC03A
:100F7800D9FFBCC0DAFFDF6EB6C0B2F0B7C0B3F0BD
:100F8800C8EF07F04BEF07F01200AAC0D9FFABC0BB
:100F9800DAFFDF500001AC6FAC51AA25AD6F000E2F
:100FA800AB21AE6FAAC0D9FFABC0DAFFDF50B06F7C
:100FB800ADC0D9FFAEC0DAFFDF50B16FB151D8A4D0
:100FC800E8EF07F0EAEF07F0EDEF07F0000E35EF76
:100FD80008F0B0BFF2EF07F0F4EF07F0EAEF07F020
:100FE800B1AFF9EF07F0FBEF07F0FDEF07F0EAEF1D
:100FF80007F0B0517F0B7F0AD8A405EF08F007EF80
:1010080008F009EF08F0EAEF07F0B051B125AF6F2B
:101018007F0EAF6512EF08F014EF08F02EEF08F01E
:10102800AAC0D9FFABC0DAFF7F0EDF6E7F0EAA27FA
:10103800000EAB23B151010DF350AD27F450AE2390
:10104800AA51AD5DAAC0D9FFABC0DAFFDF6E7F0E33
:1010580035EF08F0AAC0D9FFABC0DAFFAFC0DFFF99
:10106800DF501200000E0A6E000E096E95EF08F0B0
:1010780009C001F00AC002F0000E046E650E036E8E
:1010880067EC0BF0670E0124D96E010E0220DA6EB0
:10109800030EDE18D8A453EF08F055EF08F093EFCD
:1010A80008F009C001F00AC002F0000E046E650ED7
:1010B800036E67EC0BF0C80E0124D96E010E0220F6
:1010C800DA6EDE06000EDD5A09C001F00AC002F031
:1010D800000E046E650E036E67EC0BF0C80E01245B
:1010E800D96E010E0220DA6EDE50DE10D8A47FEF32
:1010F80008F081EF08F093EF08F009C001F00AC08A
:1011080002F0000E046E650E036E67EC0BF0670EBE
:101118000124D96E010E0220DA6E000EDF6E094A34
:101128000A2A22EEF9F0DE50095CDE500A58D8A0EF
:10113800A0EF08F0A2EF08F03CEF08F01200F29ED2
:10114800A4C0D9FFA5C0DAFF010EDBBEB0EF08F0DE
:10115800AEEF08F0FBEF08F0000120EE08F0A45114
:10116800D926A551DA22DECF38F0DDCF39F0D89074
:1011780038363936A4C03AF0A5C03BF038503A2684
:1011880039503B22020E3A24D96E000E3B20DA6E0B
:10119800DECFA0F0DDCFA1F0000EA36F650EA26F29
:1011A8003FEC0BF0670E0001A025D96E010EA121BE
:1011B800DA6E000EDF6E20EE08F0A451D926A55194
:1011C800DA22DECF38F0DDCF39F0010E3826000EF6
:1011D8003922010E3816000E391620EE08F0A451F7
:1011E800D926A551DA2238C0DEFF39C0DDFFA4C0F8
:1011F800D9FFA5C0DAFFDE2A000EDD22F28E12002A
:1012080022EEF9F0DECFB4F0DDCFB5F0010E00012B
:10121800B4250101006F000E0001B5210101016F25
:10122800B0C003F1B1C004F1000E026FB2C005F105
:10123800B3C006F1000E5F6F000E5E6F21EE00F086
:10124800F9C2AAF0FAC2ABF0000E0001AD6F650E4C
:10125800AC6F2BEC0BF0650E0001AA25E16E010EB8
:10126800AB21E26E640EDBCFE3FFE806FCE222EE80
:10127800F9F0DE2A000EDD221200FBC23AF0FCC2B1
:101288003BF03A4A3B2A22EEF9F0DE503A5CDE5057
:101298003B58D8A052EF09F054EF09F05AEF09F083
:1012A800000E3B6E000E3A6E74EF09F03AC0A0F0E3
:1012B8003BC0A1F0000E0001A36F650EA26F3FECCA
:1012C8000BF0670E0001A025D96E010EA121DA6E80
:1012D800DF50D8A472EF09F074EF09F045EF09F078
:1012E8003AC0A4F03BC0A5F012000101025136EC4F
:1012F80007F000C1D9FF01C1DAFF0001B2C0DEFF6B
:10130800B3C0DDFF010120EE02F00051D9260151E2
:10131800DA2202C1DEFF03C1DDFF20EE04F0005136
:10132800D9260151DA22000EDE6E000EDD6E20EEA7
:1013380006F00051D9260151DA22000EDE6E000EA9
:10134800DD6E20EE08F00051D9260151DA22000E98
:10135800DE6E000EDD6E1200FBC20BF0FCC20CF05C
:101368000B4A0C2A22EEF9F0DE500B5CDE500C58CA
:10137800D8A0C1EF09F0C3EF09F0C9EF09F0000EDA
:101388000C6E000E0B6EE1EF09F00BC001F00CC003
:1013980002F0000E046E650E036E67EC0BF0670E2C
:1013A8000124D96E010E0220DA6EDF50D8A4DFEFD7
:1013B80009F0E1EF09F0B4EF09F00BC007F00CC039
:1013C80008F0120083B4EBEF09F0EEEF09F0010E1C
:1013D800EFEF09F0000EFF0A3E6E3E463E46835090
:1013E8003E18FB0B3E18836E050E0001A96FDC0E3C
:1013F800A86F9AEC02F083B404EF0AF007EF0AF042
:10140800010E08EF0AF0000EFF0A3E6E3E463E4609
:1014180083503E18FB0B3E18836EC90E0001A46F63
:10142800000EA56FA3EC08F0E6EF09F01200FD0E20
:101438000001AA6F020EAB6F010EAD6FAC69AD5122
:1014480009E1800EAC5DD8A02CEF0AF02EEF0AF06F
:1014580040EF0AF0AAC0D9FFABC0DAFF7F0EDF6EFB
:101468007F0EAA27000EAB23810EAC25AC6FFF0EB2
:10147800AD21AD6F23EF0AF0AAC0D9FFABC0DAFFE8
:10148800ACC0DFFFAC51AA25D96EAD51AB21DA6EE5
:10149800000EDF6E12001BEC0AF0DCEC0AF0000E06
:1014A8000001B16F020EB06F360EB26F150EB36F3A
:1014B80004EC09F0000E0001B16F020EB06FA60E29
:1014C800B26F160EB36F04EC09F0000E0001B16F95
:1014D800030EB06FCC0EB26F130EB36F04EC09F0AD
:1014E80093EC0BF014EC0BF007EF00F03C0EF66EEB
:1014F800170EF76E000EF86E0900F5CF3FF00900E1
:10150800F5CF40F001EE65F013EE98F0EE6AE55085
:10151800E150FCE1E250FAE100EEBDF0160EEE6A91
:10152800E806FDE14190419200014FEF0AF083B0D7
:10153800A0EF0AF0A3EF0AF0010EA4EF0AF0000EE4
:10154800FF0A346E83503418FE0B3418836E010E74
:101558000001A96FF40EA86F9AEC02F0C90E000101
:101568009E6F000E9F6F09EC00F09BEF0AF01200CF
:10157800F29EAAC0D9FFABC0DAFFACC0DEFFADC097
:10158800DDFF000120EE06F0AA51D926AB51DA2280
:10159800000EDE6E000EDD6E20EE08F0AA51D92690
:1015A800AB51DA22000EDE6E000EDD6EF28E1200F6
:1015B800D59E000EE8CFFBF2000EE8CFFCF2000E3D
:1015C800E8CFF9F2000EE8CFFAF27AEC0BF0000E51
:1015D8000001B16F000EB06F280EB26F160EB36F18
:1015E80004EC09F0F9EC0AF01200959095929594A4
:1015F8009596C90E0001AA6F000EAB6F000EAD6F75
:10160800000EAC6FBCEC0AF0BF0E0101006F000EBB
:10161800016F000E036F020E026F79EC09F01200E1
:1016280083B619EF0BF01CEF0BF0010E1DEF0BF05A
:10163800000EFF0A0001AA6FAA47AA47AA478350CB
:10164800AA19F70BAA19836E14EF0BF01200000108
:10165800AA51AC03F3CFAEF0F4CFAFF0AA51AD036B
:10166800F350AF27AB51AC03F350AF27AEC0AAF08D
:10167800AFC0ABF012000001A051A203F3CF36F0C7
:10168800F4CF37F0A051A303F3503726A151A2039A
:10169800F350372636C0A0F037C0A1F0120083B24D
:1016A80058EF0BF05BEF0BF0010E5CEF0BF0000E48
:1016B800FF0A356E354683503518FD0B3518836E95
:1016C80053EF0BF0120001500302F3CF05F0F4CFF3
:1016D80006F001500402F350062602500302F350AC
:1016E800062605C001F006C002F01200F28AF28C4C
:1016F800D59AD596D550F80B0109D56E060ED66E3B
:10170800120041EC09F0A4C0A6F0A5C0A7F0120091
:10171800B0EC09F007C00DF008C00EF01200F28E10
:10172800060ED66EF294D58E1200FBC296F0FCC25D
:0617380097F0120005000D
:020000040020DA
:08000000FFFFFFFFFFFFFFFF00
:020000040030CA
:0E000000FF071F1EFF8185FF0FC00FE00F409E
:00000001FF
