:020000040000FA
:0400000096EF3EF049
:107D2C0000EE01F0200EEE6AE806FDE1000EF86EA2
:107D3C00000123EF3FF083B0A6EF3EF0A9EF3EF039
:107D4C00010EAAEF3EF0000EFF0A216E835021189F
:107D5C00FE0B2118836E120083B2B7EF3EF0BAEF20
:107D6C003EF0010EBBEF3EF0000EFF0A216E2146E5
:107D7C0083502118FD0B2118836E12002150230211
:107D8C00F3CF25F0F4CF26F021502402F350262611
:107D9C0022502302F350262625C021F026C022F0C3
:107DAC00120083B4DCEF3EF0DFEF3EF0010EE0EFAB
:107DBC003EF0000EFF0A216E214621468350211809
:107DCC00FB0B2118836E1200010E1D24216E000E78
:107DDC001E20226E1FC023F020C024F0A8EC3FF020
:107DEC0021C01DF022C01EF01DC027F01EC028F0BF
:107DFC001200EAEC3EF027C029F028C02AF029C076
:107E0C0021F02AC022F0000E246E070E236EC4EC63
:107E1C003EF0050E2124D96E000E2220DA6E02D817
:107E2C0022EF3FF00500FA6EDE50FD6EDE50FE6E66
:107E3C00F850FF6EFA50120012009590959295949E
:107E4C00000E286E050E276E420E296E7D0E2A6ED0
:107E5C0051EC3FF0000E286E050E276E640E296E55
:107E6C007D0E2A6E51EC3FF0000E286E050E276E2B
:107E7C00AE0E296E7D0E2A6E51EC3FF0FFEC3EF0FB
:107E8C000D0E2D6EFC0EE82EFED72D2EFCD744EFDA
:107E9C003FF000EF00F0010E1F242B6E000E20208F
:107EAC002C6E1FC021F020C022F0000E246E070E95
:107EBC00236EC4EC3EF0010E2124D96E000E22205C
:107ECC00DA6E2BC0DEFF2CC0DDFF1FC021F020C0FE
:107EDC0022F0000E246E070E236EC4EC3EF0050E4D
:107EEC002124D96E000E2220DA6E29C0DEFF2AC0B2
:107EFC00DDFF1FC021F020C022F0000E246E070E03
:107F0C00236EC4EC3EF0070E2124D96E000E222005
:107F1C00DA6E000EDF6E1FC021F020C022F0000EC2
:107F2C00246E070E236EC4EC3EF0030E2124D96E92
:107F3C00000E2220DA6E27C0DEFF28C0DDFF1F4AAC
:107F4C00202A1200000E266E22BEB1EF3FF0AFEFDA
:107F5C003FF0B7EF3FF0216C221ED8B0222A010E61
:107F6C00266E24BEBEEF3FF0BCEF3FF0C2EF3FF0F9
:107F7C00236C241ED8B0242A23502410D8B4C9EF63
:107F8C003FF0CBEF3FF0EFEF3FF0010E256ED3EF5C
:107F9C003FF0D89023362436252A24AED8EF3FF074
:107FAC00DAEF3FF0CFEF3FF02350215C2450225802
:107FBC00D8A0E3EF3FF0E5EF3FF0E9EF3FF02350BF
:107FCC00215E2450225AD89024322332252EDAEF07
:107FDC003FF02650D8B4F5EF3FF0F7EF3FF0FBEF52
:107FEC003FF0216C221ED8B0222A21C021F022C0E1
:047FFC0022F012005D
:020000040020DA
:08000000FFFFFFFFFFFFFFFF00
:020000040030CA
:0E000000FF071F1FFF8385FF0FC00FE00F409B
:00000001FF
