:020000040000FA
:0400000007EF00F016
:10000800048209ED00F06FEF00F00600F2A40FEF94
:1000180000F011EF00F056EF00F083B216EF00F099
:1000280019EF00F0010E1AEF00F0000EFF0A036E40
:10003800034683500318FD0B0318836E0106D8A0EE
:10004800020601500210D8A42CEF00F02EEF00F0A9
:1000580042EF00F083B033EF00F036EF00F0010E0E
:1000680037EF00F0000EFF0A036E83500318FE0BF3
:100078000318836E030E026EE80E016EF294060EEC
:10008800D66E83B24AEF00F04DEF00F0010E4EEF4E
:1000980000F0000EFF0A036E034683500318FD0BA1
:1000A8000318836E0492110095909592F28EF28C4B
:1000B800F28AF294D59ED58CD59AD596D550F80B60
:1000C8000109D56E060ED66E000ED76ED58E6BEF73
:1000D80000F007EF00F0000EF66E010EF76E000E4E
:1000E800F86E0900F5CF01F00900F5CF02F0049091
:0A00F8000492000158EF00F0E80345
:020000040020DA
:08000000FFFFFFFFFFFFFFFF00
:020000040030CA
:0E000000FF071F1EFF8385FF0FC00FE00F409C
:00000001FF
