:020000040000FA
:0400000007EF00F016
:10000800078226ED00F061EF00F095909592F28E50
:10001800F288F29281A213EF00F015EF00F00EEFD4
:1000280000F03EEC00F0030E066E8A0E056E560ECA
:10003800E82EFED7052EFCD7062EFAD70EEF00F0D5
:1000480007EF00F00600F2A22CEF00F02EEF00F010
:100058003CEF00F050EC00F0030E036E8A0E026EC7
:10006800560EE82EFED7022EFCD7032EFAD7F292B0
:100078000792110083B243EF00F046EF00F0010E43
:1000880047EF00F0000EFF0A046E04468350041880
:10009800FD0B0418836E120083B055EF00F058EF83
:1000A80000F0010E59EF00F0000EFF0A016E8350B8
:1000B8000118FE0B0118836E1200079007920001C9
:0400C80009EF00F04C
:020000040020DA
:08000000FFFFFFFFFFFFFFFF00
:020000040030CA
:0E000000FF071F1EFF8185FF0FC00FE00F409E
:00000001FF
