:020000040000FA
:0400000007EF00F016
:1000080002822BED00F03AEF00F09590F28EF28C20
:10001800F28AF294D58ED58CD59AD586070ED5124C
:10002800000ED66E16EF00F007EF00F083B01FEF5A
:1000380000F022EF00F0010E23EF00F0000EFF0A9F
:10004800016E83500118FE0B0118836E1200060022
:10005800F2A431EF00F033EF00F038EF00F01AECC3
:1000680000F0F294000ED66E0292110002900292F5
:06007800000109EF00F099
:020000040020DA
:08000000FFFFFFFFFFFFFFFF00
:020000040030CA
:0E000000FF071F1EFF8185FF0FC00FE00F409E
:00000001FF
