:020000040000FA
:0400000007EF00F016
:100008003482C5ED04F080EF06F00450800B0D6ECD
:1000180004500424136E03AE14EF00F016EF00F042
:1000280017EF00F013801350D8B41DEF00F01FEF46
:1000380000F032EF00F01328D8A425EF00F027EFE6
:1000480000F02FEF00F0000E016E000E026E000EA1
:10005800036E000E046E038E3AEF00F0000E016E80
:10006800000E026E000E036E000E046E0850800B28
:100078000D1A08500824126E07AE45EF00F047EF3E
:1000880000F048EF00F012801250D8B44EEF00F0A4
:1000980050EF00F063EF00F01228D8A456EF00F0FC
:1000A80058EF00F060EF00F0000E056E000E066ECF
:1000B800000E076E000E086E078E6BEF00F0000E44
:1000C800056E000E066E000E076E000E086E1250CA
:1000D800D8B471EF00F073EF00F07BEF00F013502D
:1000E800D8A479EF00F07BEF00F085EF00F0000E68
:1000F800016E000E026E000E036E000E046E1DEF00
:1001080002F007500102F3CF18F0F4CF19F018509D
:100118000E6E0F6A106A116A1950146E156A166A03
:10012800176A06500202F3CF18F0F4CF19F01850EE
:100138000E26000E0F221022112219501426000E2E
:1001480015221622172205500302F3CF18F0F4CF18
:1001580019F018500E26000E0F22102211221950E5
:100168001426000E15221622172210C011F00FC0F7
:1001780010F00EC00FF00E6A05500202F3CF18F00F
:10018800F4CF19F018500E2619500F22000E102225
:10019800000E112206500102F3CF18F0F4CF19F027
:1001A80018500E2619500F22000E1022000E112290
:1001B80010C011F00FC010F00EC00FF00E6A0550FD
:1001C8000102F3CF18F0F4CF19F018500E26195089
:1001D8000F22000E1022000E112207500202F3CF48
:1001E80018F0F4CF19F01850142619501522000EE3
:1001F8001622000E172206500302F3CF18F0F4CF90
:1002080019F01850142619501522000E1622000E47
:10021800172207500302F3CF18F0F4CF19F0185043
:10022800096E19500A6E0B6A0C6A0BC00CF00AC0F2
:100238000BF009C00AF0096A095014260A50152261
:100248000B5016220C5017220EC009F00FC00AF0EE
:1002580010C00BF011C00CF0190E38EF01F0D89057
:100268000C320B320A320932E82E33EF01F0095012
:1002780014260A5015220B5016220C50172210C0B3
:1002880011F00FC010F00EC00FF00E6A125013C01C
:1002980009F00A6A0926000E0A22820E0924186E3D
:1002A800FF0E0A20196E6EEF01F0D890143615363D
:1002B8001636173611AE63EF01F065EF01F066EF01
:1002C80001F01480D8900E360F3610361136180605
:1002D800D8A0190616AE73EF01F075EF01F059EFCB
:1002E80001F0000E126E11AE7CEF01F07EEF01F00E
:1002F800A2EF01F0FF0E0E14096EFF0E0F140A6E26
:10030800FF0E10140B6E7F0E11140C6E09500A109C
:100318000B100C10D8B493EF01F095EF01F099EFA2
:1003280001F0010E126EA2EF01F014A09EEF01F091
:10033800A0EF01F0A2EF01F095EF01F01250D8B450
:10034800A8EF01F0AAEF01F0CEEF01F0010E14269C
:10035800000E15221622172217A0B5EF01F0B7EFED
:1003680001F0CEEF01F014C009F015C00AF016C074
:100378000BF017C00CF00C340C320B320A32093275
:1003880009C014F00AC015F00BC016F00CC017F025
:10039800184A192A19BED9EF01F0195008E118288E
:1003A800D8A0D9EF01F0DBEF01F0E5EF01F0000E86
:1003B800146E000E156E800E166E7F0E176E13EFFC
:1003C80002F019BEF2EF01F0195006E11804D8B096
:1003D800F0EF01F0F2EF01F0FEEF01F0000E146E05
:1003E800000E156E000E166E000E176E000E0D6EC6
:1003F80013EF02F018C013F0FF0E1416FF0E1516B7
:100408007F0E1616000E171613A00DEF02F00FEF51
:1004180002F010EF02F0168ED8901330176E0D50C0
:10042800171214C001F015C002F016C003F017C06F
:1004380004F012000450800B116E04500424186E4E
:1004480003AE29EF02F02BEF02F02CEF02F0188038
:100458001850D8B432EF02F034EF02F049EF02F04E
:100468001828D8A43AEF02F03CEF02F044EF02F06B
:10047800000E016E000E026E000E036E000E046E7A
:10048800038E000E046E51EF02F0000E016E000E96
:10049800026E000E036E000E046E0850800B111AD7
:1004A80008500824196E07AE5CEF02F05EEF02F008
:1004B8005FEF02F019801950D8B465EF02F067EFCA
:1004C80002F07CEF02F01928D8A46DEF02F06FEF6C
:1004D80002F077EF02F0000E056E000E066E000EB9
:1004E800076E000E086E078E000E086E84EF02F08D
:1004F800000E056E000E066E000E076E000E086EEA
:100508000550061007100810D8A48DEF02F08FEFE1
:1005180002F0A7EF02F0000E016E000E026E000E50
:10052800036E000E046E800E03127F0E041211502B
:10053800041201C001F002C002F003C003F004C0BD
:1005480004F0EAEF03F01850D8A4ADEF02F0AFEFD3
:1005580002F0B9EF02F0000E016E000E026E000EFE
:10056800036E000E046EEAEF03F0195018C009F08C
:100578000A6A095E000E0A5A7F0E0924126E000EDE
:100588000A20136E01C00DF002C00EF003C00FF078
:1005980004C010F0000E016E000E026E000E036E15
:1005A800000E046E000E146E000E156E000E166E10
:1005B800000E176E000E196E1AEF03F01950D8B41A
:1005C800E8EF02F0EAEF02F001EF03F0D8900D3601
:1005D8000E360F361036D8900136023603360436FA
:1005E80017AEF9EF02F0FBEF02F0FCEF02F001802A
:1005F800D890143615361636173605500D5C065049
:100608000E5807500F5808501058D8A00EEF03F096
:1006180010EF03F019EF03F0178C05500D5E06502C
:100628000E5A07500F5A0850105A192A190E1964F1
:1006380020EF03F022EF03F0E2EF02F00D500E106E
:100648000F101010D8B42BEF03F02DEF03F045EF87
:1006580003F0148045EF03F0D890013602360336D4
:10066800043617AE3AEF03F03CEF03F03DEF03F02A
:100678000180D89014361536163617361206D8A0CB
:10068800130603AE4AEF03F04CEF03F030EF03F02C
:10069800000E196E17AE53EF03F055EF03F079EF24
:1006A80003F0FF0E1414096EFF0E15140A6EFF0EE8
:1006B80016140B6E7F0E17140C6E09500A100B10CF
:1006C8000C10D8B46AEF03F06CEF03F070EF03F08E
:1006D800010E196E79EF03F001A075EF03F077EFC3
:1006E80003F079EF03F06CEF03F01950D8B47FEF03
:1006F80003F081EF03F0A5EF03F0010E0126000ED1
:1007080002220322042204A08CEF03F08EEF03F0F0
:10071800A5EF03F001C009F002C00AF003C00BF016
:1007280004C00CF00C340C320B320A32093209C006
:1007380001F00AC002F00BC003F00CC004F0124A2A
:10074800132A13BEB0EF03F0135008E11228D8A003
:10075800B0EF03F0B2EF03F0BDEF03F0000E136E3D
:100768001268000E016E000E026E000E036E000E7F
:10077800046E13BECAEF03F0135006E11204D8B09A
:10078800C8EF03F0CAEF03F0D8EF03F0000E136EC2
:10079800000E126E000E016E000E026E000E036E49
:1007A800000E046E000E116E12C018F018A0DFEFD4
:1007B80003F0E1EF03F0E4EF03F0038EE5EF03F05D
:1007C800039ED8901830046E9BEF02F012000E6E54
:1007D8000E50D8B4F2EF03F0F4EF03F016EF04F084
:1007E80009BEFBEF03F0F9EF03F016EF04F006C0C3
:1007F8000AF007C00BF008C00CF009C00DF00A1E83
:100808000B1E0C1E0D1E0A2A000E0B220C220D2296
:100818000AC010F00BC011F00CC012F00DC013F09C
:100828001EEF04F006C010F007C011F008C012F067
:1008380009C013F00650071008100910D8A427EFB4
:1008480004F029EF04F033EF04F0000E066E000EFA
:10085800076E000E086E000E096EC4EF04F0960EC7
:100868000F6E3DEF04F00F2AD89013321232113276
:100878001032000E10140A6E000E11140B6E000ECA
:1008880012140C6EFE0E13140D6E0A500B100C1081
:100898000D10D8A452EF04F054EF04F037EF04F031
:1008A80062EF04F00F2A010E1026000E1122122208
:1008B8001322D8901332123211321032000E101453
:1008C8000A6E000E11140B6E000E12140C6EFF0E41
:1008D80013140D6E0A500B100C100D10D8A477EFDE
:1008E80004F079EF04F056EF04F081EF04F00F06FE
:1008F800D890103611361236133612BE86EF04F031
:1009080088EF04F090EF04F0020E0F608EEF04F011
:1009180090EF04F07BEF04F00FB095EF04F097EF41
:1009280004F098EF04F0129ED8900F320FC00AF02E
:100938000B6A0C6A0D6A0AC00DF00C6A0B6A0A6A27
:100948000A5010120B5011120C5012120D501312A3
:100958000E50D8B4B2EF04F0B4EF04F0BCEF04F0DA
:1009680009BEBBEF04F0B9EF04F0BCEF04F0138E3E
:1009780010C006F011C007F012C008F013C009F04B
:1009880012000600F3CF20F0F4CF21F0F2A4CFEF4D
:1009980004F0D1EF04F0EAEF04F0E80E321807E1B2
:1009A800030E3318D8A4DBEF04F0DDEF04F0EAEF10
:1009B80004F063EC06F0DC0ED66E0B0ED76E000E5C
:1009C800336E000E326EF2945BEF05F0F2A4EFEF97
:1009D80004F0F1EF04F027EF05F0000E046E0A0EA4
:1009E800036E32C001F033C002F00DEC06F001C016
:1009F80006F002C007F0086A096A000EEBEC03F083
:100A080006C014F007C015F008C016F009C017F0AA
:100A18002AC018F02BC019F02CC01AF02DC01BF0FA
:100A2800B8EC05F0D8A01BEF05F01DEF05F027EF97
:100A380005F08380DC0ED66E0B0ED76E324A332A51
:100A4800F2945BEF05F0F2A42CEF05F02EEF05F021
:100A58004BEF05F032C001F033C002F0000E046E17
:100A68000A0E036E0DEC06F001500210D8A43FEFF9
:100A780005F041EF05F04BEF05F08390DC0ED66EE4
:100A88000B0ED76E324A332AF2945BEF05F0F2A4CC
:100A980050EF05F052EF05F05BEF05F0324A332ACC
:100AA800DC0ED66E0B0ED76EF2945BEF05F021C00C
:100AB800F4FF20C0F3FF349211002EC001F02FC0C4
:100AC80002F030C003F031C004F0000E056E000ED5
:100AD800066EA00E076E400E086E1EEC02F001C0F6
:100AE80026F002C027F003C028F004C029F0000E49
:100AF800226E000E236E000E246E000E256E000E70
:100B0800056E000E066E200E076E410E086E22C09E
:100B180001F023C002F024C003F025C004F009EC62
:100B280000F001C01AF002C01BF003C01CF004C0A2
:100B38001DF01AC001F01BC002F01CC003F01DC05C
:100B480004F026C005F027C006F028C007F029C029
:100B580008F009EC00F001C02AF002C02BF003C035
:100B68002CF004C02DF01200000E14141C6E000EA0
:100B780015141D6E800E16141E6E7F0E17141F6E30
:100B88001C501D101E101F10D8A4CDEF05F0CFEF7C
:100B980005F0D7EF05F0000E146E000E156E000E6E
:100BA800166E000E176E000E18141C6E000E191427
:100BB8001D6E800E1A141E6E7F0E1B141F6E1C50A5
:100BC8001D101E101F10D8A4ECEF05F0EEEF05F075
:100BD800F6EF05F0000E186E000E196E000E1A6E74
:100BE800000E1B6E185014180FE1195015180CE15F
:100BF8001A50161809E11B501718D8B406EF06F05A
:100C080008EF06F00BEF06F0D8900CEF06F0D8804E
:100C1800120003500410D8B414EF06F016EF06F0D3
:100C28003AEF06F0010E056E1EEF06F0D890033677
:100C38000436052A04AE23EF06F025EF06F01AEF76
:100C480006F00350015C04500258D8A02EEF06F0BD
:100C580030EF06F034EF06F00350015E0450025AFC
:100C6800D89004320332052E25EF06F001C001F0BA
:100C780002C002F01200F28EF28CF28AF294D58E43
:100C8800D59CD59AD588D596D550F80B0309D56E3D
:100C9800DC0ED66E0B0ED76ECB680F0EBE6E300E06
:100CA800BD129494CA50FC0B0209CA6ECA84BD5086
:100CB800F00B0C09BD6E5FEF06F007EF00F080B097
:100CC80068EF06F06CEF06F01E6A1E2A6DEF06F05C
:100CD8001E6A1E50066E076A086A096A000EEBEC67
:100CE80003F006C02EF007C02FF008C030F009C08E
:100CF80031F061EC05F0120000EE22F0120EEE6AFF
:0E0D0800E806FDE13490349200013FEF06F062
:020000040020DA
:08000000FFFFFFFFFFFFFFFF00
:020000040030CA
:0E000000FF071F1EFF8185FF0FC00FE00F409E
:00000001FF
