:020000040000FA
:0400000007EF00F016
:100008003B82B8ED00F0C6EF01F0000E286E24BE6A
:1000180012EF00F010EF00F018EF00F0236C241E30
:10002800D8B0242A010E286E26BE1FEF00F01DEF5F
:1000380000F023EF00F0256C261ED8B0262A2550A4
:100048002610D8B42AEF00F02CEF00F050EF00F0A3
:10005800010E276E34EF00F0D89025362636272A71
:1000680026AE39EF00F03BEF00F030EF00F02550FE
:10007800235C26502458D8A044EF00F046EF00F047
:100088004AEF00F02550235E2650245AD890263295
:100098002532272E3BEF00F02850D8B456EF00F059
:1000A80058EF00F05CEF00F0236C241ED8B0242A2F
:1000B80023C023F024C024F01200010E2124396E3D
:1000C800000E22203A6E21C02FF022C030F0000E20
:1000D800326E070E316EA0EC01F0010E2F24D96E9E
:1000E800000E3020DA6E39C0DEFF3AC0DDFF21C0D5
:1000F8002FF022C030F0000E326E070E316EA0ECE9
:1001080001F0030E2F24D96E000E3020DA6E35C0B0
:10011800DEFF36C0DDFF21C02FF022C030F0000E18
:10012800326E070E316EA0EC01F0050E2F24D96E49
:10013800000E3020DA6E37C0DEFF38C0DDFF21C088
:100148002FF022C030F0000E326E070E316EA0EC98
:1001580001F0070E2F24D96E000E3020DA6E000E43
:10016800DF6E214A222A12000600FACF29F0FBCFBF
:100178002AF0D9CF2BF0DACF2CF0F3CF2DF0F4CF33
:100188002EF0F2A4CAEF00F0CCEF00F0E3EF00F09D
:10019800B80E1D1807E10B0E1E18D8A4D6EF00F0F4
:1001A800D8EF00F0E3EF00F031EC01F0060ED66E68
:1001B800000E1E6E000E1D6EF294EFEF00F0F2A41A
:1001C800E8EF00F0EAEF00F0EFEF00F01D4A1E2A1A
:1001D800060ED66EF2942EC0F4FF2DC0F3FF2CC08D
:1001E800DAFF2BC0D9FF2AC0FBFF29C0FAFF3B92D8
:1001F80011009590959295949596F28EF28CF28ACC
:10020800F294D58ED58CD59AD586D550F80B0109A0
:10021800D56E060ED66E000E366E050E356E180EAD
:10022800376E030E386E61EC00F0000E366E050E68
:10023800356EEE0E376E020E386E61EC00F0000E71
:10024800366E050E356EC20E376E020E386E61ECD4
:1002580000F02DEF01F007EF00F0010E1F24236ED0
:10026800000E2020246E21C025F022C026F009ECC3
:1002780000F023C01FF024C020F01F50236E205030
:10028800246E1F4A202A000E266E070E256EB3EC38
:1002980001F0050E2324D96E000E2420DA6E02D850
:1002A80060EF01F00500FA6EDE50FD6EDE50FE6E66
:1002B800F850FF6EFA5012001200D3EC01F083B62A
:1002C80068EF01F06BEF01F0010E6CEF01F0000E2A
:1002D800FF0A236E23462346234683502318F70B31
:1002E8002318836E1200D3EC01F083B47EEF01F083
:1002F80081EF01F0010E82EF01F0000EFF0A236E7C
:100308002346234683502318FB0B2318836E1200C1
:10031800D3EC01F083B293EF01F096EF01F0010EF8
:1003280097EF01F0000EFF0A236E2346835023182F
:10033800FD0B2318836E12002F503102F3CF33F0D8
:10034800F4CF34F02F503202F350342630503102BB
:10035800F350342633C02FF034C030F0120023504D
:100368002502F3CF27F0F4CF28F023502602F350CC
:10037800282624502502F350282627C023F028C019
:1003880024F0120000EE01F0220EEE6AE806FDE10C
:100398003B903B92000EF86E0001FDEF00F0839059
:0803A8008392839483961200F6
:020000040020DA
:08000000FFFFFFFFFFFFFFFF00
:020000040030CA
:0E000000FF071F1EFF8185FF0FC00FE00F409E
:00000001FF
