:020000040000FA
:0400000007EF00F016
:100008004C829FED02F00DEF0AF0F29E44C0D9FF3A
:1000180045C0DAFF010EDBBE1DEF00F0010EDB501C
:1000280006E1DE04D8B01BEF00F01DEF00F096EFFC
:1000380002F023EE81F010EE0EF04450E126455018
:10004800E222E6CF46F0E5CF47F0D890463647366D
:1000580044C048F045C049F0465048264750492218
:10006800040E4824E16E000E4920E26EDECFE6FF62
:10007800DDCFE5FF20EE0EF04450D9264550DA22B8
:10008800DECF46F0DDCF47F0010E46240001976F22
:10009800000E4720986F000E9A6F050E996F84EC3A
:1000A80009F020EE0EF04450D9264550DA2200011E
:1000B80097C0DEFF98C0DDFF000E026E000E016ED5
:1000C80081C397F082C398F0000E9A6F4A0E996F19
:1000D800E2EC0AF07B0E00019725D96E010E9821FB
:1000E800DA6E020EDF6E81C397F082C398F0000EBD
:1000F8009A6F4A0E996FE2EC0AF0BF0E000197253D
:10010800D96E010E9821DA6EE8CFDFFF81C397F030
:1001180082C398F0000E9A6F4A0E996FE2EC0AF0CB
:10012800BE0E00019725D96E010E9821DA6EE0CF38
:10013800DFFF81C397F082C398F0000E9A6F4A0ED2
:10014800996FE2EC0AF0C00E00019725D96E010EF6
:100158009821DA6ED8CFDFFF34EF01F081C397F032
:1001680082C398F0000E00019A6F4A0E996FE2EC74
:100178000AF0790E466E010E476E070E4626000EEF
:1001880047220001975146269851472201C097F00F
:1001980002C098F0000E9A6F030E996FE2EC0AF015
:1001A800000197514624D96E98514720DA6EFFCF47
:1001B800DFFF81C397F082C398F0000E9A6F4A0E52
:1001C800996FE2EC0AF0790E466E010E476E080E42
:1001D8004626000E4722000197514626985147228D
:1001E80001C097F002C098F0000E9A6F030E996F45
:1001F800E2EC0AF0000197514624D96E9851472045
:10020800DA6EFDCFDFFF81C397F082C398F0000E4E
:100218009A6F4A0E996FE2EC0AF0790E466E010E5B
:10022800476E090E4626000E4722000197514626C2
:100238009851472201C097F002C098F0000E9A6FBB
:10024800030E996FE2EC0AF0000197514624D96E2B
:1002580098514720DA6EFECFDFFF014A022A0600D6
:10026800FC50D8A43AEF01F03CEF01F0B2EF00F0F7
:1002780081C397F082C398F0000E00019A6F4A0E6E
:10028800996FE2EC0AF0BC0E00019725D96E010EB9
:100298009821DA6E01C0DEFF02C0DDFF14EC0BF01E
:1002A80042C081F343C082F3000EFC6E81C397F015
:1002B80082C398F0000E00019A6F4A0E996FE2EC23
:1002C8000AF0BC0E00019725D96E010E9821DA6E4E
:1002D800DE50DE10D8A473EF01F075EF01F0A6EF41
:1002E80001F0050081C397F082C398F0000E000169
:1002F8009A6F4A0E996FE2EC0AF07E0E000197257C
:10030800D96E010E9821DA6EDECF46F0DDCF47F0C8
:1003180046C0FDFF47C0FEFFFF6A81C397F082C356
:1003280098F0000E9A6F4A0E996FE2EC0AF07B0E75
:1003380000019725D96E010E9821DA6E010EDF6E45
:1003480096EF02F081C397F082C398F0000E9A6F7F
:100358004A0E996FE2EC0AF07B0E00019725D96EE0
:10036800010E9821DA6E010EDF6E81C397F082C309
:1003780098F0000E9A6F4A0E996FE2EC0AF0BF0EE1
:1003880000019725D96E010E9821DA6EDF50466E6E
:10039800465081C397F082C398F0000E9A6F4A0EB8
:1003A800996FE2EC0AF0BE0E00019725D96E010E96
:1003B8009821DA6EDF50E06E81C397F082C398F01F
:1003C800000E9A6F4A0E996FE2EC0AF0C00E000117
:1003D8009725D96E010E9821DA6EDF50D86E81C349
:1003E80097F082C398F0000E9A6F4A0E996FE2EC6C
:1003F8000AF0BC0E00019725D96E010E9821DA6E1D
:10040800DECF01F0DDCF02F08DEF02F0050081C3F1
:1004180097F082C398F0000E00019A6F4A0E996F08
:10042800E2EC0AF0790E466E010E476E040E46267F
:10043800000E47220001975146269851472201C0D5
:1004480097F002C098F0000E9A6F030E996FE2ECD5
:100458000AF0000197514624D96E98514720DA6E68
:10046800DF50FF6E81C397F082C398F0000E9A6F39
:100478004A0E996FE2EC0AF0790E466E010E476E4D
:10048800050E4626000E4722000197514626985130
:10049800472201C097F002C098F0000E9A6F030E31
:1004A800996FE2EC0AF0000197514624D96E9851F1
:1004B8004720DA6EDF50FD6E81C397F082C398F053
:1004C800000E9A6F4A0E996FE2EC0AF0790E466EAA
:1004D800010E476E060E4626000E47220001975170
:1004E80046269851472201C097F002C098F0000EA6
:1004F8009A6F030E996FE2EC0AF0000197514624B7
:10050800D96E98514720DA6EDF50FE6E0106D8A0EA
:10051800020601500210D8A494EF02F096EF02F000
:100528000AEF02F044C0D9FF45C0DAFFDE06000E2C
:10053800DD5AF28E12000600D9CF37F0DACF38F044
:10054800F3CF39F0F4CF3AF0F29ED59EF2A4AFEF94
:1005580002F0B1EF02F0DFEF04F04A06D8A04B0634
:100568004A504B10D8A4BBEF02F0BDEF02F0D9EF10
:1005780004F0000E026E000E016E81C327F082C3E4
:1005880028F0000E2A6E4A0E296EF6EC0AF07B0E51
:100598002724D96E010E2820DA6E000EDF6E81C383
:1005A80027F082C328F0000E2A6E4A0E296EF6EC58
:1005B8000AF0BF0E2724D96E010E2820DA6EE8CF84
:1005C800DFFF81C327F082C328F0000E2A6E4A0E8F
:1005D800296EF6EC0AF0BE0E2724D96E010E2820EB
:1005E800DA6EE0CFDFFF81C327F082C328F0000E68
:1005F8002A6E4A0E296EF6EC0AF0C00E2724D96E30
:10060800010E2820DA6ED8CFDFFF86EF03F081C312
:1006180027F082C328F0000E2A6E4A0E296EF6ECE7
:100628000AF0790E356E010E366E070E3526000E6D
:100638003622275035262850362201C027F002C01E
:1006480028F0000E2A6E030E296EF6EC0AF02750E9
:100658003524D96E28503620DA6EFFCFDFFF81C3EC
:1006680027F082C328F0000E2A6E4A0E296EF6EC97
:100678000AF0790E356E010E366E080E3526000E1C
:100688003622275035262850362201C027F002C0CE
:1006980028F0000E2A6E030E296EF6EC0AF0275099
:1006A8003524D96E28503620DA6EFDCFDFFF81C39E
:1006B80027F082C328F0000E2A6E4A0E296EF6EC47
:1006C8000AF0790E356E010E366E090E3526000ECB
:1006D8003622275035262850362201C027F002C07E
:1006E80028F0000E2A6E030E296EF6EC0AF0275049
:1006F8003524D96E28503620DA6EFECFDFFF014A46
:10070800022A0600FC50D8A48CEF03F08EEF03F009
:100718000BEF03F081C327F082C328F0000E2A6E86
:100728004A0E296EF6EC0AF0BC0E2724D96E010E8B
:100738002820DA6E01C0DEFF02C0DDFF1BEC0BF0E3
:1007480033C081F334C082F3000EFC6E81C327F0FE
:1007580082C328F0000E2A6E4A0E296EF6EC0AF0C3
:10076800BC0E2724D96E010E2820DA6EDE50DE106A
:10077800D8A4C1EF03F0C3EF03F0F1EF03F00500D5
:1007880081C327F082C328F0000E2A6E4A0E296E14
:10079800F6EC0AF07E0E2724D96E010E2820DA6EB8
:1007A800DECF35F0DDCF36F035C0FDFF36C0FEFFB9
:1007B800FF6A81C327F082C328F0000E2A6E4A0E12
:1007C800296EF6EC0AF07B0E2724D96E010E28203C
:1007D800DA6E010EDF6ED5EF04F081C327F082C315
:1007E80028F0000E2A6E4A0E296EF6EC0AF07B0EEF
:1007F8002724D96E010E2820DA6E010EDF6E81C320
:1008080027F082C328F0000E2A6E4A0E296EF6ECF5
:100818000AF0BF0E2724D96E010E2820DA6EDF50A9
:10082800356E355081C327F082C328F0000E2A6E3A
:100838004A0E296EF6EC0AF0BE0E2724D96E010E78
:100848002820DA6EDF50E06E81C327F082C328F0DB
:10085800000E2A6E4A0E296EF6EC0AF0C00E272406
:10086800D96E010E2820DA6EDF50D86E81C327F0CA
:1008780082C328F0000E2A6E4A0E296EF6EC0AF0A2
:10088800BC0E2724D96E010E2820DA6EDECF01F0C7
:10089800DDCF02F0CCEF04F0050081C327F082C35E
:1008A80028F0000E2A6E4A0E296EF6EC0AF0790E30
:1008B800356E010E366E040E3526000E3622275090
:1008C80035262850362201C027F002C028F0000E35
:1008D8002A6E030E296EF6EC0AF027503524D96EDD
:1008E80028503620DA6EDF50FF6E81C327F082C3AE
:1008F80028F0000E2A6E4A0E296EF6EC0AF0790EE0
:10090800356E010E366E050E3526000E362227503E
:1009180035262850362201C027F002C028F0000EE4
:100928002A6E030E296EF6EC0AF027503524D96E8C
:1009380028503620DA6EDF50FD6E81C327F082C35F
:1009480028F0000E2A6E4A0E296EF6EC0AF0790E8F
:10095800356E010E366E060E3526000E36222750ED
:1009680035262850362201C027F002C028F0000E94
:100978002A6E030E296EF6EC0AF027503524D96E3C
:1009880028503620DA6EDF50FE6E0106D8A0020627
:1009980001500210D8A4D3EF04F0D5EF04F050EFC3
:1009A80004F0000E4B6E050E4A6E70EC06F0F294E1
:1009B800060ED66ED58EF28E3AC0F4FF39C0F3FF1C
:1009C80038C0DAFF37C0D9FF4C9211000101336FEC
:1009D8007E0E01013365F3EF04F0F5EF04F0FBEF51
:1009E80004F0000E2B6F000E2C6F7CEF05F0830EC9
:1009F800346F030E356F34C1D9FF35C1DAFFDF50CC
:100A08000101326F32517F0B2D6F2D05316F32513D
:100A1800D8A411EF05F013EF05F015EF05F0F5EF89
:100A280004F032BF1AEF05F01CEF05F033EF05F0C4
:100A38003351315DD8B023EF05F025EF05F03FEFD6
:100A480005F034C123F135C124F103EC06F00009A7
:100A5800D8A431EF05F033EF05F07AEF05F0010186
:100A680032517F0B2D6F2D51010DF3503427F45067
:100A78003523FFEF04F031513319D8A446EF05F0C0
:100A880048EF05F055EF05F034C1D9FF35C1DAFF5D
:100A9800DF8E010E34252B6F000E35212C6F7CEF75
:100AA80005F03351810F34C1D9FF35C1DAFFDF6E4C
:100AB800010E34252F6F000E3521306F33512D6F05
:100AC8002E6B010E2D27000E2E232D5134272E516B
:100AD80035233351315D34C1D9FF35C1DAFFDF6EBB
:100AE8002FC12BF130C12CF17CEF05F0FFEF04F0A2
:100AF8001200F29E1CC1D9FF1DC1DAFF010EDBBE38
:100B08008AEF05F088EF05F0E0EF05F0010120EE2F
:100B180010F01C51D9261D51DA22DECF1EF1DDCF8F
:100B28001FF1D8901E371F371CC120F11DC121F1BC
:100B38001E5120271F512123040E2025D96E000E97
:100B48002121DA6EDECF97F0DDCF98F0000E00019C
:100B58009A6F4A0E996FE2EC0AF07B0E0001972516
:100B6800D96E010E9821DA6E000EDF6E010120EEBB
:100B780010F01C51D9261D51DA22DECF1EF1DDCF2F
:100B88001FF1010E1E250001976F000E01011F21A4
:100B98000001986F000E9A6F050E996F84EC09F0AA
:100BA800010120EE10F01C51D9261D51DA22000156
:100BB80097C0DEFF98C0DDFF010120EE02F01C5156
:100BC800D9261D51DA221CC1E1FF1DC1E2FFDE500A
:100BD800E65CE650800A226FDE50800A2259D8B0BF
:100BE800F8EF05F0FAEF05F001EF06F01CC1D9FFA8
:100BF8001DC1DAFFDE2A000EDD22F28E120023C1AB
:100C0800D9FF24C1DAFFDF500101256F25512325C3
:100C1800276F000E2421286F23C1D9FF24C1DAFFD2
:100C2800DF50296F27C1D9FF28C1DAFFDF502A6FAB
:100C38002A51D8A422EF06F024EF06F027EF06F099
:100C4800000E6FEF06F029BF2CEF06F02EEF06F02E
:100C580024EF06F02AAF33EF06F035EF06F037EF52
:100C680006F024EF06F029517F0B7F0AD8A43FEF46
:100C780006F041EF06F043EF06F024EF06F02951A5
:100C88002A25266F7F0E26654CEF06F04EEF06F0FC
:100C980068EF06F023C1D9FF24C1DAFF7F0EDF6EAB
:100CA8007F0E2327000E24232A51010DF3502727F6
:100CB800F45028232351275D23C1D9FF24C1DAFF2B
:100CC800DF6E7F0E6FEF06F023C1D9FF24C1DAFF74
:100CD80026C1DFFFDF501200000E306E000E2F6EAF
:100CE800CFEF06F02FC027F030C028F0000E2A6E94
:100CF8004A0E296EF6EC0AF07B0E2724D96E010EF7
:100D08002820DA6E030EDE18D8A48DEF06F08FEFD8
:100D180006F0CDEF06F02FC027F030C028F0000E07
:100D28002A6E4A0E296EF6EC0AF0C10E2724D96EF7
:100D3800010E2820DA6EDE06000EDD5A2FC027F0DD
:100D480030C028F0000E2A6E4A0E296EF6EC0AF022
:100D5800C10E2724D96E010E2820DA6EDE50DE106F
:100D6800D8A4B9EF06F0BBEF06F0CDEF06F02FC020
:100D780027F030C028F0000E2A6E4A0E296EF6ECD5
:100D88000AF07B0E2724D96E010E2820DA6E000E99
:100D9800DF6E2F4A302A23EE7FF0DE502F5CDE50C4
:100DA8003058D8A0DAEF06F0DCEF06F076EF06F060
:100DB8001200AD0E3C6E000E3D6E20EC08F00009EE
:100DC800D8B4E9EF06F0EBEF06F02DEF07F081AEAF
:100DD800F0EF06F0F2EF06F0F9EF06F083A6F7EF72
:100DE80006F0F9EF06F015EF07F081ACFEEF06F01C
:100DF80000EF07F007EF07F083A405EF07F007EF10
:100E080007F015EF07F09D0E3C6E000E3D6E20ECCE
:100E180008F00009D8B413EF07F015EF07F021EF39
:100E280007F08388A50E01011C6F000E1D6F010ECF
:100E38001E6F8EEC07F0DDEF06F08398A50E01011A
:100E48001C6F000E1D6F000E1E6F8EEC07F0DDEF9D
:100E580006F081BE32EF07F034EF07F03BEF07F002
:100E680081AC39EF07F03BEF07F03EEF07F08388DE
:100E780016EF07F0839822EF07F0120050EC09F004
:100E88007AEC0AF0000E01012A6F020E296F680E33
:100E98002B6F150E2C6FA9EC08F0000E01012A6FBC
:100EA800020E296F2E0E2B6F150E2C6FA9EC08F071
:100EB800000E01012A6F030E296FBA0E2B6F0D0E5B
:100EC8002C6FA9EC08F0000E01012A6F030E296FA0
:100ED800680E2B6F140E2C6FA9EC08F0000E0101A0
:100EE8002A6F030E296FB00E2B6F0F0E2C6FA9EC13
:100EF80008F0000E01012A6F030E296FAE0E2B6F4A
:100F0800140E2C6FA9EC08F022EC0BF028EC0BF077
:100F180007EF00F0F29E010120EE06F01C51D926E1
:100F28001D51DA22DECF1FF1DDCF20F11CC1D9FF20
:100F38001DC1DAFFDECF21F1DDCF22F11F512125BE
:100F4800D96E20512221DA6E1EC1DFFF20EE06F095
:100F58001C51D9261D51DA22DECF1FF1DDCF20F139
:100F6800010E1F250001976F000E010120210001CD
:100F7800986F010120EE02F01C51D9261D51DA228A
:100F8800DECF99F0DDCF9AF084EC09F0010120EE74
:100F980006F01C51D9261D51DA22000197C0DEFF48
:100FA80098C0DDFFF28E120081BEDDEF07F0DFEFA3
:100FB80007F0E6EF07F081ACE4EF07F0E6EF07F0A3
:100FC800D8EF07F0AD0E3C6E000E3D6E20EC08F039
:100FD8000009D8B4F2EF07F0F4EF07F012EF08F0C9
:100FE80081AEF9EF07F0FBEF07F002EF08F0818A16
:100FF800030E446E000E456E09EC00F081AC07EF5D
:1010080008F009EF08F01DEF08F08188030E446E20
:10101800000E456E09EC00F0D8EF07F09D0E0101B7
:101028001C6F000E1D6F010E1E6F8EEC07F00AEF8D
:1010380008F0D8EF07F01200F29E20EE04F03C50C2
:10104800D9263D50DA22DECF3EF0DDCF3FF03CC05E
:10105800D9FF3DC0DAFFDECF40F0DDCF41F03E5092
:101068004024D96E3F504120DA6EDF50426E20EEA8
:1010780004F03C50D9263D50DA22DECF3EF0DDCFD9
:101088003FF0010E3E240001976F000E3F20986F3D
:1010980020EE02F03C50D9263D50DA22DECF99F0FE
:1010A800DDCF9AF084EC09F020EE04F03C50D9260C
:1010B8003D50DA22000197C0DEFF98C0DDFFF28EB6
:1010C800425012009582958495869598959A959C9C
:1010D800959E9398939A938C938E150E0101236F86
:1010E800000E246F000E266F000E256FE3EC09F04A
:1010F800030E0101236F000E246F000E266F000EF1
:10110800256FE3EC09F0AD0E0101366F000E376F65
:10111800000E396F010E386FB7EC09F0A50E01010A
:10112800366F000E376F000E396F010E386FB7EC4F
:1011380009F09D0E0101366F000E376F000E396FF2
:10114800010E386FB7EC09F0120023EE7FF0DECF06
:101158002DF1DDCF2EF1010E01012D252F6F000E8F
:101168002E21306F29C132F12AC133F1000E316FBF
:101178002BC134F12CC135F1000E736F000E726F64
:1011880021EE2FF07FC323F180C324F1000E266FD8
:101198004A0E256FCEEC0AF0790E01012325E16E87
:1011A800010E2421E26E490EDBCFE3FFE806FCE2E4
:1011B80023EE7FF0DE2A000EDD22120081C340F00C
:1011C80082C341F0404A412A23EE7FF0DE50405C62
:1011D800DE504158D8A0F3EF08F0F5EF08F0FBEF28
:1011E80008F0000E416E000E406E15EF09F040C089
:1011F80097F041C098F0000E00019A6F4A0E996F5F
:10120800E2EC0AF07B0E00019725D96E010E9821B9
:10121800DA6EDF50D8A413EF09F015EF09F0E6EF06
:1012280008F040C03CF041C03DF0120081C331F0ED
:1012380082C332F0314A322A23EE7FF0DE50315C2D
:10124800DE503258D8A02BEF09F02DEF09F033EF1C
:1012580009F0000E326E000E316E4BEF09F031C00E
:1012680027F032C028F0000E2A6E4A0E296EF6ECDE
:101278000AF07B0E2724D96E010E2820DA6EDF5083
:10128800D8A449EF09F04BEF09F01EEF09F031C07F
:101298002DF032C02EF01200830E0101236F030ED1
:1012A800246F010E266F2569265109E1800E255D00
:1012B800D8A061EF09F063EF09F075EF09F023C1D9
:1012C800D9FF24C1DAFF7F0EDF6E7F0E2327000EC1
:1012D8002423810E2525256FFF0E2621266F58EF22
:1012E80009F023C1D9FF24C1DAFF25C1DFFF255149
:1012F8002325D96E26512421DA6E000EDF6E1200E6
:10130800000199519A11D8B48CEF09F08EEF09F0C9
:10131800B2EF09F0010E9B6F96EF09F0D89099375C
:101328009A379B2B9AAF9BEF09F09DEF09F092EF4C
:1013380009F09951975D9A519859D8A0A6EF09F0EC
:10134800A8EF09F0ACEF09F09951975F9A51985BB3
:10135800D8909A3399339B2F9DEF09F097C097F057
:1013680098C098F0120001013851EAEC04F036C137
:10137800D9FF37C1DAFF01012BC1DEFF2CC1DDFF28
:1013880020EE02F03651D9263751DA2238C1DEFF75
:1013980039C1DDFF20EE04F03651D9263751DA2263
:1013A800000EDE6E000EDD6E20EE06F03651D926F8
:1013B8003751DA22000EDE6E000EDD6E1200F29E4C
:1013C80023C1D9FF24C1DAFF25C1DEFF26C1DDFF15
:1013D800010120EE02F02351D9262451DA2225C139
:1013E800DEFF26C1DDFF20EE0EF02351D926245161
:1013F800DA22000EDE6E000EDD6E20EE10F02351B4
:10140800D9262451DA22000EDE6E000EDD6EF28E31
:101418001200580EF66E160EF76E000EF86E0900E2
:10142800F5CF4AF00900F5CF4BF001EE79F014EE54
:101438000AF0EE6AE550E150FCE1E250FAE100EE14
:101448009DF0180EEE6AE806FDE100EE01F0260EAA
:10145800EE6AE806FDE14C904C92000142EF07F07D
:1014680083B639EF0AF03BEF0AF03CEF0AF0838AC3
:1014780083A641EF0AF043EF0AF044EF0AF0839A9B
:1014880083B449EF0AF04BEF0AF04CEF0AF0838C73
:1014980083A451EF0AF053EF0AF034EF0AF0839C6B
:1014A80034EF0AF0120081BE5CEF0AF05EEF0AF03A
:1014B80057EF0AF081BC63EF0AF065EF0AF057EFC7
:1014C8000AF0819A81989D0E01011C6F000E1D6F14
:1014D800000E1E6F8EEC07F0030E01011C6F000E4C
:1014E8001D6F7DEC05F057EF0AF01200D59E000E37
:1014F800E8CF81F3000EE8CF82F3000EE8CF7FF348
:10150800000EE8CF80F309EC0BF0000E01012A6F02
:10151800000E296F500E2B6F160E2C6FA9EC08F0D9
:1015280066EC08F0120083A29CEF0AF09EEF0AF026
:1015380097EF0AF0839E819A8198AD0E01011C6F86
:10154800000E1D6F000E1E6F8EEC07F0150E0101C8
:101558001C6F000E1D6F7DEC05F097EF0AF012006E
:1015680083B2B9EF0AF0BBEF0AF0B4EF0AF0838E4A
:10157800AD0E01011C6F000E1D6F010E1E6F8EEC6B
:1015880007F0150E446E000E456E09EC00F0B4EF3E
:101598000AF01200010123512503F3CF27F1F4CFFC
:1015A80028F123512603F350282724512503F3500B
:1015B800282727C123F128C124F1120000019751DF
:1015C8009903F3CF9BF0F4CF9CF097519A03F35013
:1015D8009C2798519903F3509C279BC097F09CC077
:1015E80098F0120027502902F3CF2BF0F4CF2CF0FB
:1015F80027502A02F3502C2628502902F3502C2673
:101608002BC027F02CC028F01200F28AF28CD59A51
:10161800D596D550F80B0109D56E060ED66E120078
:10162800E2EC08F03CC042F03DC043F012001AEC76
:1016380009F02DC033F02EC034F01200F28E060EE1
:10164800D66EF294D58E120000F028EF0BF012003F
:0216580005008B
:020000040020DA
:08000000FFFFFFFFFFFFFFFF00
:020000040030CA
:0E000000FF071F1EFF8185FF0FC00FE00F409E
:00000001FF
