:020000040000FA
:0400000007EF00F016
:1000080040824BED01F099EF02F0000E386E34BEDD
:1000180012EF00F010EF00F018EF00F0336C341E10
:10002800D8B0342A010E386E36BE1FEF00F01DEF2F
:1000380000F023EF00F0356C361ED8B0362A355064
:100048003610D8B42AEF00F02CEF00F050EF00F093
:10005800010E376E34EF00F0D89035363636372A31
:1000680036AE39EF00F03BEF00F030EF00F03550DE
:10007800335C36503458D8A044EF00F046EF00F017
:100088004AEF00F03550335E3650345AD890363245
:100098003532372E3BEF00F03850D8B456EF00F029
:1000A80058EF00F05CEF00F0336C341ED8B0342AFF
:1000B80033C033F034C034F01200000E286E24BE72
:1000C8006AEF00F068EF00F070EF00F0236C241E78
:1000D800D8B0242A010E286E26BE77EF00F075EFFF
:1000E80000F07BEF00F0256C261ED8B0262A25509C
:1000F8002610D8B482EF00F084EF00F0A8EF00F0EB
:10010800010E276E8CEF00F0D89025362636272A68
:1001180026AE91EF00F093EF00F088EF00F0255045
:10012800235C26502458D8A09CEF00F09EEF00F0E6
:10013800A2EF00F02550235E2650245AD89026328C
:100148002532272E93EF00F02850D8B4AEEF00F0F8
:10015800B0EF00F0B4EF00F0236C241ED8B0242ACE
:1001680023C023F024C024F01200010E21243D6E88
:10017800000E22203E6E21C033F022C034F0000E63
:10018800366E070E356E3DEC02F0010E3324D96E43
:10019800000E3420DA6E3DC0DEFF3EC0DDFF21C018
:1001A80033F022C034F0000E366E070E356E3DEC8B
:1001B80002F0050E3324D96E000E3420DA6E3BC0EF
:1001C800DEFF3CC0DDFF21C033F022C034F0000E5A
:1001D800366E070E356E3DEC02F0070E3324D96EED
:1001E800000E3420DA6E000EDF6E21C033F022C01C
:1001F80034F0000E366E070E356E3DEC02F0030E3D
:100208003324D96E000E3420DA6E39C0DEFF3AC0CE
:10021800DDFF214A222A1200959095929594D59A4D
:10022800D586D550F80B0209D56EF28AF294F28C75
:10023800F28ED58E000ED66E000E3A6E050E396E11
:10024800FA0E3B6E030E3C6EB9EC00F0000E3A6EEF
:10025800050E396ECC0E3B6E030E3C6EB9EC00F009
:10026800000E3A6E050E396E9C0E3B6E030E3C6E08
:10027800B9EC00F086EC01F00D0E3F6EFC0EE82E96
:10028800FED73F2EFCD73EEF01F007EF00F0060047
:10029800FACF2DF0FBCF2EF0D9CF2FF0DACF30F0F8
:1002A800F3CF31F0F4CF32F01D4A1E2AF2A45FEFEB
:1002B80001F061EF01F078EF01F01EBE6DEF01F083
:1002C8001E5009E1C80E1D5CD8A06DEF01F06FEF5C
:1002D80001F078EF01F0AAEC01F0F294000ED66E6E
:1002E800000E1E6E000E1D6E32C0F4FF31C0F3FF0B
:1002F80030C0DAFF2FC0D9FF2EC0FBFF2DC0FAFF98
:100308004092110013EC02F039C03BF03AC03CF0C7
:100318003BC033F03CC034F0000E366E070E356E2D
:100328003DEC02F0050E3324D96E000E3420DA6E4F
:1003380002D8A9EF01F00500FA6EDE50FD6EDE501E
:10034800FE6EF850FF6EFA501200120028EC02F010
:1003580029C02BF02AC02CF02BC023F02CC024F08D
:10036800000E266E070E256E63EC02F0050E2324A0
:10037800D96E000E2420DA6E02D8CDEF01F0050008
:10038800FA6EDE50FD6EDE50FE6EF850FF6EFA50CB
:100398001200120040A2D3EF01F050EF02F083B434
:1003A800D8EF01F0DBEF01F0010EDCEF01F0000EF9
:1003B800FF0A336E3346334683503318FB0B33182A
:1003C800836E120040A2EBEF01F076EF02F083B2E9
:1003D800F0EF01F0F3EF01F0010EF4EF01F0000E81
:1003E800FF0A336E334683503318FD0B3318836E80
:1003F800120040A202EF02F088EF02F083B007EF8C
:1004080002F00AEF02F0010E0BEF02F0000EFF0AF5
:10041800336E83503318FE0B3318836E1200010EAF
:100428001F24336E000E2020346E21C035F022C008
:1004380036F009EC00F033C01FF034C020F01FC0C4
:1004480039F020C03AF01200010E1F24236E000E6E
:100458002020246E21C025F022C026F061EC00F097
:1004680023C01FF024C020F01FC029F020C02AF0AC
:10047800120033503502F3CF37F0F4CF38F0335051
:100488003602F350382634503502F350382637C038
:1004980033F038C034F0120083B455EF02F058EF4F
:1004A80002F0010E59EF02F0000EFF0A236E2346F8
:1004B800234683502318FB0B2318836E1200235006
:1004C8002502F3CF27F0F4CF28F023502602F3506B
:1004D800282624502502F350282627C023F028C0B8
:1004E80024F0120083B27BEF02F07EEF02F0010EDF
:1004F8007FEF02F0000EFF0A236E23468350231875
:10050800FD0B2318836E120083B08DEF02F090EF7D
:1005180002F0010E91EF02F0000EFF0A236E8350E5
:100528002318FE0B2318836E120000EE01F0220E32
:10053800EE6AE806FDE140904092000EF86E000178
:0405480010EF01F0BF
:020000040020DA
:08000000FFFFFFFFFFFFFFFF00
:020000040030CA
:0E000000FF071F1FFF8385FF0FC00FE00F409B
:00000001FF
