:020000040000FA
:0400000025EF00F0F8
:0600080006825BED00F032
:100018000680D8CF03F0E8CF04F0E0CF05F0F0A0D9
:1000280018EF00F01AEF00F01DEF00F027EC00F0D9
:10003800F09005C0E0FF04C0E8FF03C0D8FF0690B9
:10004800100068EF00F083B22CEF00F02FEF00F003
:10005800010E30EF00F0000EFF0A026E02468350D8
:100068000218FD0B0218836E120095909592F19E6E
:10007800F28EF28CF288F292F19CF19AF086F0906E
:10008800D08EF09C46EF00F025EF00F083B04FEFE4
:1000980000F052EF00F0010E53EF00F0000EFF0ADF
:1000A800016E83500118FE0B0118836E12000600C2
:1000B800F2A261EF00F063EF00F066EF00F04AECA7
:1000C80000F0F2920692110006900692000139EFB4
:0200D80000F036
:020000040020DA
:08000000FFFFFFFFFFFFFFFF00
:020000040030CA
:0E000000FF071F1EFF8185FF0FC00FE00F409E
:00000001FF
